:020000040000FA
:1000000060830020950100004B0200004D020000BB
:100010004F020000510200005302000000000000E7
:10002000FFFFFFFF0000000000000000550200007D
:100030005702000000000000590200005B020000AF
:100040005D0200005D0200005D0200005D02000034
:100050005D0200005D0200005D02000000F002F899
:1000600000F02CF80AA090E8000C82448344AAF126
:100070000107DA4501D100F021F8AFF2090EBAE824
:100080000F0013F0010F18BFFB1A43F001031847CC
:1000900068020000780200000023002400250026EA
:1000A000103A28BF78C1FBD8520728BF30C148BFDB
:1000B0000B6070471FB51FBD10B510BD00F0E5F80F
:1000C0001146FFF7F7FF00F05FF800F003F903B403
:1000D000FFF7F2FF03BC00F007F9000000204FF02B
:1000E0008242116821F00F0141F002011160224AA1
:1000F00011682A21116000E0401C6428FCD31E49CD
:100100000831086820F0800008600A1F10681B4B47
:10011000184040F00600106000BF00BF00BF00BFE5
:10012000106820F4805040F4805010600868C006C9
:10013000FCD4106820F4407010600F49203108682A
:100140006FF3140040F420000D4B184340F480007E
:10015000086008680028FCDA10680849C91D0840D2
:10016000084B184340F0070010601068084040F446
:10017000803010607047000040000040F8FFF8F049
:100180000031030000000101012070474FF4F840E6
:10019000704700004FF080414FF05700C1F8F00069
:1001A0004FF07500C1F8F000FFF798FF2F494AF2B1
:1001B0005A50C1F8F0002D4940F64370086048F2EB
:1001C0005E00886072B64FF0000080F311884FF037
:1001D000000080F310884FF0000080F31388FFF7D1
:1001E000D5FF0146224809184FF0000240F8042BC1
:1001F0008842FBD11D4945F25A50C1F8F000FFF783
:10020000C5FF01461A4809184FF4806252F8043BB2
:1002100040F8043B8842F9D1144945F25A50C1F8DC
:10022000F0001449086800BF00BF00BF00BF0047CE
:100230004FF080414FF05700C1F8F0004FF07500CB
:10024000C1F8F0004FF001008860F1E7F0E7EFE758
:10025000EEE7EDE7ECE7EBE7EAE7E9E7E8E7FEE7FB
:1002600005480649044A064B70470000000200405A
:10027000000400200404002060800020608300202F
:1002800060800020704770477047754600F028F87E
:10029000AE4605006946534620F00700854618B073
:1002A00020B5FFF7DDFFBDE820404FF000064FF01E
:1002B00000074FF000084FF0000B21F00701AC469B
:1002C000ACE8C009ACE8C009ACE8C009ACE8C009BA
:1002D0008D4670470446AFF300802046FFF7F7FED7
:1002E000004870470080002001491820ABBEFEE79F
:1002F0002600020070470000080300000080002074
:1003000060030000980000000000000000000000F2
:1003100000000000000000000000000000000000DD
:1003200000000000000000000000000000000000CD
:1003300000000000000000000000000000000000BD
:1003400000000000000000000000000000000000AD
:10035000000000000000000000000000000000009D
:10036000000000000000000000000000000000008D
:10037000000000000000000000000000000000007D
:10038000000000000000000000000000000000006D
:10039000000000000000000000000000000000005D
:1003A000000000000000000000000000000000004D
:1003B000000000000000000000000000000000003D
:1003C000000000000000000000000000000000002D
:1003D000000000000000000000000000000000001D
:1003E000000000000000000000000000000000000D
:1003F00000000000000000000000000000000000FD
:10040000E09E002025630020F33A0020F50500203F
:100410000F3B00201B3B0020273B0020000000007A
:10042000000000000000000000000000333B00203E
:100430003F3B00200000000071630020BD3600201B
:1004400079630020796300207963002079630020BC
:1004500079630020796300207963002079630020AC
:10046000796300207963002079630020796300209C
:10047000796300207963002079630020796300208C
:10048000796300207963002079630020796300207C
:10049000796300207963002079630020796300206C
:1004A000796300207963002079630020796300205C
:1004B000796300207963002079630020796300204C
:1004C000796300207963002079630020796300203C
:1004D000796300207963002079630020796300202C
:1004E000796300207963002079630020796300201C
:1004F000796300207963002079630020796300200C
:1005000079630020796300207963002079630020FB
:1005100079630020796300207963002079630020EB
:1005200079630020796300207963002079630020DB
:100530007963002079630020796300201D37002053
:1005400023370020293700202F370020353700209F
:100550003B37002000F002F800F03AF80AA090E8DB
:10056000000C82448344AAF10107DA4501D100F06E
:100570002FF8AFF2090EBAE80F0013F0010F18BF01
:10058000FB1A43F0010318475C5F00007C5F00002A
:10059000103A24BF78C878C1FAD8520724BF30C8AF
:1005A00030C144BF04680C60704700000023002481
:1005B00000250026103A28BF78C1FBD8520728BF73
:1005C00030C148BF0B6070471FB51FBD10B510BDCF
:1005D00005F012FF1146FFF7F7FF00F0B9F805F03C
:1005E00030FF03B4FFF7F2FF03BC05F035FF000056
:1005F00000BF70471EF0040F0CBFEFF30880EFF34D
:10060000098003F07CBA002902D0491E018002E073
:100610004FF6FF7101800021C180704730B5012283
:10062000C3884FF6FF75832B13D2448803889C42FE
:1006300006D2A5EB030303F10103234483800BE0FF
:1006400003D9A4EB0303838006E085804FF000020A
:1006500002E085804FF00002012901D1418801802C
:10066000104630BD70B50021234D41F221044FF6F4
:10067000FF7303EA01200022060403D584EA400048
:1006800080B201E003EA4000521C92B2082AF3D380
:1006900025F81100491C89B2FF29EAD970BD10B5AF
:1006A00003461046144A08E013F8014B84EA10246C
:1006B00032F8144084EA002080B2491EF4D210BD02
:1006C00030B40C4611464FF0FF32092809D241B12F
:1006D000032808D004280AD0052808D0104630BCCA
:1006E00070471046FBE7204630BC1A46D7E7204645
:1006F00030BC4FF6FF72D2E7E480002010B503460D
:1007000003E011F8014B03F8014B521EF9D210BD62
:1007100010B50346C9B201E003F8011B521EFBD21B
:1007200010BD30B500230FE004780D78AC4208D03E
:1007300000780978884201D9012030BD4FF0FF30A0
:1007400030BD401C491C5B1C9342EDD3002030BDE2
:1007500070B5174C45F25A552560012005F0B5FDDE
:1007600003F0B9F9022003F085F802F03FFF01F031
:1007700003FF03F069FAFFF775FF00F0FCF800F0E3
:100780003FF900F0BCFB00F021FF00F0ABFF00F0F0
:1007900044FA05F069FE642002F0AFFF25600120F5
:1007A00005F093FD00F029FB00F064FA002070BD15
:1007B000F0020040FA487047FA4800787047F9495B
:1007C00008707047F8487047F749002808D08979C1
:1007D000012807D0022808D0032809D0002070473C
:1007E0004879704701F00F007047C1F3011070475E
:1007F00088097047EB48C0687047EA48406970470D
:10080000E84800697047E74880697047E548C06973
:1008100040787047E348C0697047E248006A401C6E
:100820007047E048406A7047DF48D0F8C40070471E
:10083000DD48D0F8C410002909D14FF0A531C0F827
:10084000C41000F1C4010422D84801F027BF70474A
:1008500070B500240168D64A914210D1C279811E38
:10086000515C0902431ED55C0D430146921E0023D4
:100870000320FFF725FF80B2854200D101242046E6
:1008800070BD10B5CB4945F25A50086003F030F9FD
:1008900005F0ECFD4FF400404068BDE8104005F065
:1008A00056BD70B50024C822FF21BF48FFF730FFB6
:1008B00045F25A567507C5F8F062C822BA494FF09A
:1008C000606001F0D1FE012805D005F0CFFD0120C8
:1008D00005F0FBFCFEE7C5F8F062B348FFF7B8FF90
:1008E000012801D0002070BDAF4BAE4A587930B11D
:1008F00003F10801D16000EB4000401C84B29879FC
:1009000001070AD019190831516100F00F0101EBFC
:10091000810104EB4101491C8CB210F0300F0BD067
:10092000191908311161C0F3011101EB810505EBC3
:10093000C1012144491C8CB281090AD0191908311E
:100940009161800900EB400101EBC0002044401C94
:1009500084B219190831D161A41DA0B21C18083441
:100960001462183080B28978890702D018440830A0
:100970005062012070BDF8B50026306A0090411C1D
:100980004FF0A53406D0A04234D1FFF78AFF864D40
:10099000E8B128E0009404226946202003F063F9BE
:1009A00045F25A514A0738B1C2F8F01205F05EFD1F
:1009B000012005F08AFCFEE7C2F8F0124FF4007146
:1009C0004FF0606001F051FEFFF75BFFF8BDD5F816
:1009D000C400A04205D105F049FD012005F075FCD9
:1009E000FEE7FFF74EFFD5F8C400A042EED0C5F8F1
:1009F000C460F8BD05F03AFD012005F066FCFEE795
:100A00002DE9F0410020FFF7DFFE804666480079BF
:100A1000000601D502F060FF0025624F5BE0FA6836
:100A200005EB4504A118CE7806F00F00062850D239
:100A3000DFE800F0030A11181F3CB1F801000022A2
:100A40000E2103F0D4FB44E0B1F801000022CE21D6
:100A500003F0CDFB3DE0B1F8010000228E2103F050
:100A6000C6FB36E0B1F801000022CE2103F0BFFB47
:100A70002FE0300900EB400010440221B0F80100E3
:100A800003F099FB012808D0F868002220448E2149
:100A9000B0F8010003F0ABFB1BE0F8680022204433
:100AA000CE21B0F8010003F0A2FB12E0300900EB08
:100AB000400010440221B0F8010003F07CFB012843
:100AC0000DD0F86800222044CE21B0F8010003F0D8
:100AD0008EFB6D1CADB24545A1D3BDE8F081F86831
:100AE000002220448E21B0F8010003F080FBF0E7E3
:100AF0002DE9F0410020FFF767FE8046294FB868D6
:100B0000401CB860002548E0F96805EB450466180C
:100B1000F27802F00F03032B04D0042B0BD0052B2B
:100B200026D038E0387A002200F00101B6F8010042
:100B300003F032FB2FE0100900EB400008440221D3
:100B4000B0F8010003F037FB012808D0F868002254
:100B500020441146B0F8010003F01EFB1BE0F868CA
:100B6000002220440121B0F8010003F015FB12E03F
:100B7000100900EB400008440221B0F8010003F026
:100B80001AFB012818D0F868002220440121B0F88F
:100B9000010003F001FB6D1CADB24545B4D39CE7E9
:100BA000AC84002000800020E4820020C400000EFD
:100BB00055667788F0020040F8680022204411460C
:100BC000B0F8010003F0E8FAE5E700B5FFF7F2FD41
:100BD0009B4900228A80006888628A70CA7000BDC2
:100BE00004464FF400714FF0606001F03EFD9549FE
:100BF00045F25A50086005F0E1F89349884203D164
:100C0000012C01D104F0ABFBC82002F076FD05F009
:100C10002DFC012005F059FBFEE710B58849C86995
:100C20004078002806D001280BD0022813D0BDE858
:100C3000104026E602223421BDE81040322000F0A8
:100C4000B1B90A223421322000F0ACF902F0F6F9F1
:100C5000BDE81040B9E7086A407800F003000128B9
:100C600002D00020FFF7BCFF002002F023FDBDE80A
:100C70001040AAE710B5724CE069807810F00300CC
:100C800005D0012803D101F073FA01F04EFCE069B0
:100C9000407830B1012808D002280AD00020FFF7A0
:100CA0009FFFBDE8104002F05EB8BDE8104002F0C2
:100CB00026BCBDE8104002F0CCB8614A1063D18078
:100CC000704710B50246FFF775FD5D4C5C4BA1788F
:100CD0002C335A54491CC9B2A17004290CD1416863
:100CE000A06A814208D90021A1700122194602F0B0
:100CF000BAFFA06A001DA06210BD10B5504C534948
:100D0000A2888854FFF7DDFF2079401CC0B2A08084
:100D100010BD70B5FFF74EFD0546494C02E0FF20BF
:100D2000FFF7CFFFA1780029F9D10020A080286823
:100D3000A06270BD2DE9F05F0024DFF80481B8F8EF
:100D400006A0A34655E03F4945F25A50086098F87E
:100D5000030020B1012813D002284AD123E0204605
:100D6000D8F83010641CA4B2085C88F80100B428DC
:100D700002D0FFF7C2FF3CE0012088F8030038E012
:100D80002046D8F83010641CA4B2085C88F8010032
:100D900018B1022088F803002BE0B420FFF7ADFF64
:100DA00088F803B025E0D8F830102046641C0E5CAB
:100DB000A4B2B8F8040098F80110401A00F5807049
:100DC000C11700EB116121F0FF01401A87B2002525
:100DD000DFF8789009E07819C0B219F8000088F8B7
:100DE0000100FFF78AFF6D1CEDB2B542F3D388F81E
:100DF00003B05445A7D3BDE8F09F70B5134DC83D6F
:100E000005F5E4742879C0F38010207204F0D6FF51
:100E10000D4A4FF4002190420CD1287942064FF43C
:100E2000801004D44FF408212160606070BD2160FF
:100E3000606070BD4FF400402060616070BD0000D4
:100E400000800020F00200400042344DAC830020BE
:100E500000F00F00062802D94FF416507047F849E9
:100E600051F82000704710B500EBC001F548002292
:100E700000EB81041146208B03F0B9F9608B00224E
:100E8000012103F0B4F9A08B00228E2103F0AFF909
:100E9000E08B0022BDE810408E2103F0A8B970B5A8
:100EA00000EBC002E74810F8225000EB82046160BA
:100EB0000021284603F0BDFA0021284603F0ACFAD1
:100EC000A08B0122002103F067F9208C012804D1B6
:100ED0000122E08B114603F05FF9E8B2214603F0EE
:100EE0000FFC0121284603F0E3FB0021284603F014
:100EF000A0FA2846BDE87040012103F08DBA2DE923
:100F0000F05F0120FFF760FC8346FFF776FC814627
:100F10000026B246DFF82C8337E006EB860009EBAB
:100F2000400506EBC607687808F82700A87800F0A7
:100F30001F00FFF78DFF08EB87046060A878C0F3FF
:100F4000411030B3022827D002202061A878ED1C80
:100F5000C00920842888208368886083A888A083AB
:100F6000E888E0830320A060C4F80CA084F814A0F3
:100F70003046FFF778FF30466168FFF790FF18F8BA
:100F8000270002F07CFB761CB6B25E45C5D3BDE8F7
:100F9000F09FC4F810A0D9E701202061D6E7AA4845
:100FA0000079704710B5A74BA84C0C3B5C60A84C6F
:100FB0009C60A34B0A3B187059709A7010BD70B5B5
:100FC0000325FFF723FCA04C4E3418B101280BD0A9
:100FD000002070BD22889C49921F0023563128466C
:100FE000FFF76EFB80B208E02288A11D121F4FF6AA
:100FF000FF732846FFF764FB80B2934A2188513281
:101000008B5C521E895C43EA0121814201D00020A1
:1010100070BD012070BD10B5FFF7F8FB18B10128B5
:1010200005D0002010BDBDE8104001F0D3BEBDE8E2
:10103000104002F0CFBA10B5FFF7E8FB18B1012855
:1010400005D0002010BDBDE8104001F0C6BEBDE8CF
:10105000104002F0C2BA7A491439088170472DE96C
:10106000FF5F0446FFF7D2FB0090DFF8D88104EB66
:10107000C40018F820000290029803F0ACF901288F
:1010800078D0A8F2364B6E4F9BF80400FF1F4FF04C
:101090000009A7F10D0648B1385D01286AD19BF817
:1010A0000400022866D0012853D068E000254FF0E4
:1010B000010A644803A90C384268029890470190DD
:1010C0006D1CADB2BDF80C10002953D0142D51D8B1
:1010D0005B490A390978814236D107F804A08BF8B8
:1010E00004A08BF805001E20ABF80000ABF802A0AE
:1010F000FFF791FF012827D1FFF79DFFA04223D0E2
:10110000FFF799FFFFF7A7FF3089012100EBC0002F
:1011100018F8200003F057F93089002100EBC000D7
:1011200018F8200003F0E2FB308901AA00EBC000B0
:10113000012118F8200003F092FB434880F804A036
:1011400002213170A0F802909BF804000028B0D072
:10115000A5E7BBF80200718888420DD1B088401C19
:1011600080B2B08064280AD98BF8049007F8049004
:10117000A6F80490BDE8FF9F7080A6F8049030495F
:10118000314D0A39BBF802008978533588422FD88F
:10119000091A491C8AB2411905F225408368029850
:1011A000984700F0FF0AFFF736FF01281BD130896E
:1011B00000EBC00018F8200003F00DF9012812D14F
:1011C0003089012100EBC00018F8200003F08EFBED
:1011D000BBF8020051464219308900EBC00018F8F4
:1011E000200003F03CFBBBF802005044ABF80200C7
:1011F0001348BBF802100A3880788142BAD90098A7
:1012000078B19BF80F009BF80E2040EA0220ABF863
:101210000000B0F5407F29D907F804908BF80490BE
:10122000A8E79BF807009BF8062040EA0220ABF8ED
:1012300000000E280ED20E20ABF8000019E00000CE
:10124000488000203C890020B884002053470020BB
:10125000E3470020B0F5826F04D907F804908BF8BB
:10126000049087E7801CABF8000002E00E30ABF87A
:101270000000BBF80000401A82B2BA4829448368D3
:101280000298984700F0FF0AFFF7C5FE01281BD11E
:10129000308900EBC00018F8200003F09CF801280A
:1012A00012D13089012100EBC00018F8200003F0B2
:1012B0001DFBBBF8020051464219308900EBC0000B
:1012C00018F8200003F0CBFABBF80200504480B2BB
:1012D000ABF80200BBF800108842A1D3A248095C19
:1012E000A2484078814229D1FFF769FE012806D043
:1012F0000098F0B1032038558BF804003AE7FFF767
:101300008AFE012810D1308900EBC00018F82000B7
:1013100003F061F8012807D13089012100EBC000FA
:1013200018F8200003F05EF802208BF8040038550E
:1013300020E707F804908BF804901BE78BF80490E3
:1013400007F8049016E78848001F0179022903D0A6
:10135000032901D00020704700210171801D7047D2
:1013600070B50546002405F083F8804AD21C515D13
:10137000022901D0032902D10C460021515505F064
:101380007BF8204670BD2DE9F0410546FFF73EFA97
:10139000764F754E523E3978717138B3287A010212
:1013A000687A08430C3084B2452C1DD8A01C3080CC
:1013B00022462946B01DFFF7A1F932884FF6FF7388
:1013C000121FB11D0320FFF77BF980B2020A311909
:1013D0000A7148717878887101203071634905205D
:1013E0000A39087000207080BDE8F081287800027A
:1013F0006C7804433E2CF7D8A01C30802246294646
:10140000B01DFFF77BF932885749921F00234A39F4
:101410000320FFF755F980B2D8E770B50120FFF738
:10142000D3F90546002404E02046FFF718FE641CAB
:10143000A4B2AC42F8D370BD2DE9F0474B4D4949F9
:101440000A3D0C31288900EBC00011F8207001EB37
:101450008000868BA1F284446088002803D0401E5F
:101460006080BDE8F087414822790A384FF00008D3
:1014700001784FF00209481EC0B2072AF1D2DFE816
:1014800002F0040519395C046100EAE784F804906D
:10149000B6F5B56F07D0A6F57F40FF3803D0002121
:1014A000384602F0B9FF3046BDE8F0470122114648
:1014B00002F072BE09B12870D3E7032020713846CC
:1014C00002F07AFF08B9A5F80680384602F083FFDB
:1014D00038B9384603F0B0F92188621D384603F068
:1014E000BEF9384603F010FA3846BDE8F04701214E
:1014F00003F0E4B9384603F007FA0426012805D0C2
:10150000384602F068FF012802D008E02671A8E7FB
:10151000384602F051FF012801D184F80490E88890
:10152000401C80B2E88040F6B831884299D9002149
:10153000384602F07EFF267193E7062020710120D5
:1015400028708EE709B128708BE701220021304610
:1015500002F022FE0121384602F05EFF84F804808A
:101560007FE70000308900200A8500203E800020AF
:1015700070B55B4D00EB800101EBC00428680022D0
:1015800020440321C08802F032FE28680022204453
:101590000421008902F02BFE286800222044052146
:1015A000408902F024FE286820448178490706D546
:1015B0008089BDE8704000228E2102F018BE80892B
:1015C000BDE870400022CE2102F011BE2DE9F041AD
:1015D00086B000250220FFF7F7F88046FFF710F9E4
:1015E0003F4F38600024002649E004EB840039684E
:1015F00000EBC40001444878ADF8000088884FF43F
:101600007A7250430390C878082802D0092803D181
:1016100001E0002500E0012504958878C00703D08B
:1016200020208DF8020001E08DF8026088788007A4
:1016300003D510208DF8030001E08DF80360887851
:10164000000702D5ADF8066002E00820ADF80600FC
:101650008878C00603D50420ADF8080001E0ADF895
:1016600008608878C0F3411005902046FFF780FF9E
:10167000BDF80000694602F0ADFB641CA4B244450D
:10168000B3D306B0BDE8F08100EB800202EBC002EC
:10169000134800681044827880895207002A03DAD0
:1016A000002249B202F078BD81F0010149B2002266
:1016B00002F072BD00EB800303EBC000084B1B6817
:1016C0001844407802F05EBD00EB800303EBC000DD
:1016D000034B1B6818440023407802F091BC0000C3
:1016E000648000202DE9F0410320FFF76DF80746E4
:1016F000FFF789F8F74E7060002413E004EB440014
:1017000000EBC405706800222844AE21408902F035
:101710006EFD7068002228448E21008902F067FD6A
:10172000641CA4B2BC42E9D3BDE8F081002101E011
:10173000491C89B28142FBD370472DE9FC41E54C3D
:1017400000EB400101EBC005606800222844012144
:10175000408902F021FDE04F384603F0A3FF81B23B
:10176000ADF802106846FEF74EFF4FF4C8763846D3
:1017700003F098FFADF8020000216846FEF74EFF27
:10178000BDF80400B04202D30020BDE8FC816068CF
:1017900002212844408902F00EFD0028E7D00120F4
:1017A000F3E770B5CB4D00EB400101EBC004686876
:1017B00000222044CE21008902F019FD2020FFF7ED
:1017C000B5FF6868002220440121408902F0E4FC52
:1017D0002020FFF7ABFF68680022204411460089F3
:1017E000BDE8704002F0D8BC70B5BA4D00EB4001C6
:1017F00001EBC0046868002220448E21008902F0B9
:10180000F6FC2020FFF792FF6868002220440121A7
:10181000408902F0C1FC2020FFF788FF68680022A1
:1018200020440121008902F0B7FC2020FFF77EFF51
:1018300068680022204411464089BDE8704002F0EB
:10184000ABBC70B5A34D00EB400101EBC004686870
:10185000002220448E21008902F0C9FC2020FFF7DD
:1018600065FF6868002220440121408902F094FC51
:101870002020FFF75BFF6868002220441146408962
:1018800002F08AFCBDE8704020204FE770B5914D12
:1018900000EB400101EBC004686800222044CE2127
:1018A000008902F0A4FC2020FFF740FF68680022B6
:1018B00020440121408902F06FFC2020FFF736FF11
:1018C0006868002220441146408902F065FCBDE8AA
:1018D000704020202AE72DE9F04781468A4690464D
:1018E00000267C4F09EB490000EBC905786800220F
:1018F00028440E21008902F07AFC4846FFF71DFFBC
:1019000068B307247868002228440121408902F046
:1019100043FC2020FFF70AFF786802212844008951
:1019200002F049FCA040C0B206432020FFF7FEFEB3
:101930007868002228441146408902F02DFC2020BE
:10194000FFF7F4FE641E64B2002CDBDA8AF8006054
:10195000B8F1000F0DD0B8F1010F0ED010E078688B
:10196000002228448E21008902F041FC0020BDE8BD
:10197000F0874846FFF765FF02E04846FFF786FF1D
:101980002020FFF7D3FE0120F1E72DE9F04180464A
:101990000F46504E08EB480000EBC8047068002268
:1019A00020448E21008902F022FC7068002220442D
:1019B0001146408902F0F0FB2020FFF7B7FE072513
:1019C00027FA05F000F00101706800222044008928
:1019D00002F0E2FB2020FFF7A9FE706800222044FD
:1019E0000121408902F0D8FB2020FFF79FFE70689C
:1019F000002220441146408902F0CEFB2020FFF750
:101A000095FE6D1E6DB2002DDADA7068002220445A
:101A10000E21008902F0EBFB4046FFF78EFEB0B1CD
:101A20002020FFF783FE706802212044008902F025
:101A3000C2FB012814D0706800222044114640895E
:101A400002F0AAFB2020FFF771FE01206CE670680F
:101A5000002220441146408902F09EFB002063E6EC
:101A60007068002220441146408902F095FB202036
:101A7000FFF75CFE002057E62DE9F05F06468A4638
:101A8000174600250024DFF84C9019F806000028BE
:101A900043D1012009F8060006EB460000EBC6081A
:101AA000CB4601246D1CADB2012001F026FE30466C
:101AB000FFF777FEDBF80400404481783046FFF7FB
:101AC00064FF28B139783046FFF75FFF30B106E098
:101AD000002404E0688000200006004000240CB9C7
:101AE000012DDED94FF000080CB101250EE0304683
:101AF000FFF77AFE404609F80680BDE8F09F795D61
:101B00003046FFF742FF50B16D1CADB25545F6D3DC
:101B10003046FFF769FE09F806802046EDE700240D
:101B2000F6E72DE9F05F06468A4690460025002438
:101B3000DFF8A09019F80600002844D1012009F828
:101B4000060006EB460000EBC607CB4601246D1CE1
:101B5000ADB23046FFF725FEDBF80400384480784C
:101B600040F001013046FFF710FF00B900240CB926
:101B7000012DEBD94FF0000B1CB10025AAF1010794
:101B80000FE03046FFF730FE09F806B00020B4E75A
:101B900008EB050100223046FFF79DFE58B16D1C91
:101BA000ADB2BD42F4DB08EB050101223046FFF780
:101BB00092FE10B102E00024F5E700243046FFF762
:101BC00013FE09F806B0012C01D0002095E750461D
:101BD00093E7000068800020F8B506460D46FE48F1
:101BE00080688078040901212046FFF74DFD45EA11
:101BF00006200090012269462046FFF765FD00217E
:101C00002046FFF741FDF8BD012802D02821002021
:101C1000E2E72921FBE710B5782001F06EFD1121E4
:101C20000020FFF7D9FF782001F067FD3A2100205E
:101C3000FFF7D2FF03210120FFF7CEFFB1210020E3
:101C4000FFF7CAFF02210120FFF7C6FF352101205F
:101C5000FFF7C2FF36210120FFF7BEFFB2210020AF
:101C6000FFF7BAFF02210120FFF7B6FF352101205F
:101C7000FFF7B2FF36210120FFF7AEFFB3210020AE
:101C8000FFF7AAFF02210120FFF7A6FF352101205F
:101C9000FFF7A2FF36210120FFF79EFF022101205E
:101CA000FFF79AFF35210120FFF796FF362101202B
:101CB000FFF792FFB4210020FFF78EFF00210120E3
:101CC000FFF78AFFC0210020FFF786FFA221012035
:101CD000FFF782FF02210120FFF77EFF8421012010
:101CE000FFF77AFFC1210020FFF776FFC521012011
:101CF000FFF772FFC2210020FFF76EFF0D210120C8
:101D0000FFF76AFF00210120FFF766FFC3210020D3
:101D1000FFF762FF8A210120FFF75EFF2A210120E1
:101D2000FFF75AFFC4210020FFF756FF8D21012045
:101D3000FFF752FFEE210120FFF74EFFC5210020E3
:101D4000FFF74AFF12210120FFF746FFE0210020A4
:101D5000FFF742FF12210120FFF73EFF1C21012067
:101D6000FFF73AFF10210120FFF736FF182101206D
:101D7000FFF732FF33210120FFF72EFF2C21012036
:101D8000FFF72AFF25210120FFF726FF2821012048
:101D9000FFF722FF28210120FFF71EFF2721012046
:101DA000FFF71AFF2F210120FFF716FF3C2101202A
:101DB000FFF712FF00210120FFF70EFF0321012092
:101DC000FFF70AFF03210120FFF706FF1021012082
:101DD000FFF702FFE1210020FFF7FEFE12210120A4
:101DE000FFF7FAFE1C210120FFF7F6FE102101206B
:101DF000FFF7F2FE18210120FFF7EEFE2D21012052
:101E0000FFF7EAFE28210120FFF7E6FE232101204B
:101E1000FFF7E2FE28210120FFF7DEFE2821012046
:101E2000FFF7DAFE26210120FFF7D6FE2F21012041
:101E3000FFF7D2FE3B210120FFF7CEFE002101205B
:101E4000FFF7CAFE03210120FFF7C6FE0321012090
:101E5000FFF7C2FE10210120FFF7BEFE3621002051
:101E6000FFF7BAFE5C48C068007B20B1C821BDE81E
:101E700010400120B0E60021BDE810400120ABE693
:101E800013B50146544880688078040952480029F7
:101E9000C068008911D00122114602F07DF90121AC
:101EA0002046FFF7F1FB012201A92046FFF70CFCB9
:101EB00000212046FFF7E8FB1CBD0122002102F0B3
:101EC0006BF9ECE7012802D028210020D8E729216E
:101ED000FBE710B5782001F010FC11210020FFF77E
:101EE000CFFF782001F009FC3A210020FFF7C8FF5E
:101EF00003210120FFF7C4FFB1210020FFF7C0FF3D
:101F000001210846FFF7BCFF08210120FFF7B8FFB9
:101F100005210120FFF7B4FFB2210020FFF7B0FF39
:101F200001210846FFF7ACFF2C210120FFF7A8FF95
:101F30002D210120FFF7A4FFB3210020FFF7A0FF10
:101F400001210846FFF79CFF2C210120FFF798FF95
:101F50002D210120FFF794FF01210846FFF790FF94
:101F60002C210120FFF78CFF2D210120FFF788FF96
:101F7000B4210020FFF784FF00210120FFF780FF3C
:101F8000C0210020FFF77CFFA2210120FFF778FF8E
:101F900002210120FFF774FF84210120FFF770FF69
:101FA000C1210020FFF76CFFC5210120FFF768FF6A
:101FB000C2210020FFF764FF0D210120FFF760FF21
:101FC00000210120FFF75CFFC3210020FFF758FF2D
:101FD0008A21012002E0000070800020FFF750FFFE
:101FE0002A210120FFF74CFFC4210020FFF748FF02
:101FF0008A210120FFF744FFEE210120FFF740FF77
:10200000C5210020FFF73CFF18210120FFF738FF12
:10201000E0210020FFF734FF07210120FFF730FF08
:102020000B210120FFF72CFF01210846FFF728FFB5
:1020300000210120FFF724FF05210120FFF720FFE9
:1020400000210120FFF71CFF00210120FFF718FFEE
:1020500000210120FFF714FF00210120FFF710FFEE
:1020600008210120FFF70CFF11210120FFF708FFD5
:1020700035210120FFF704FF00210120FFF700FFB9
:1020800002210120FFF7FCFE18210120FFF7F8FED6
:1020900010210120FFF7F4FEE1210020FFF7F0FE00
:1020A00001210846FFF7ECFE13210120FFF7E8FEAF
:1020B00001210846FFF7E4FE00210120FFF7E0FEC2
:1020C00004210120FFF7DCFE00210120FFF7D8FEEC
:1020D00000210120FFF7D4FE00210120FFF7D0FEF0
:1020E00000210120FFF7CCFE06210120FFF7C8FEEA
:1020F00012210120FFF7C4FE36210120FFF7C0FEA8
:1021000000210120FFF7BCFE02210120FFF7B8FEED
:1021100003210120FFF7B4FE10210120FFF7B0FEDC
:1021200036210020FFF7ACFEF748C068007B20B1E5
:10213000C821BDE810400120A2E60021BDE8104002
:1021400001209DE610B5F04C00228E21E068C08889
:1021500002F04DF8782001F0D0FAE0680022CE219C
:10216000C08802F044F8BDE81040782001F0C5BAFC
:1021700010B5FEF74FFBE44CA060FEF752FBE060A9
:10218000008900228E2102F032F8E06800228E21C0
:10219000C08802F02CF8E06800228E21408902F00D
:1021A00026F8FFF7CFFFA068807810F00C0F09D059
:1021B000FFF731FD0020FFF727FDBDE81040642048
:1021C00001F09BBAFFF785FE0020FFF77BFEF4E7E6
:1021D00010B52A210020FFF753FE00210120FFF750
:1021E0004FFE17210120FFF74BFE00210120FFF7D2
:1021F00047FE6C210120FFF743FE2B210020FFF753
:102200003FFE00210120FFF73BFEBF48C068007B76
:1022100060B103210120FFF733FE00210120FFF709
:102220002FFE6221BDE81040012029E62121012076
:10223000FFF726FE00210120FFF722FE8021BDE8E6
:10224000104001201CE610B52A210020FFF7C4FC35
:1022500000210120FFF7C0FC02210120FFF7BCFC98
:1022600000210120FFF7B8FC81210120FFF7B4FC19
:102270002B210020FFF7B0FC00210120FFF7ACFC70
:10228000A148C068007B60B103210120FFF7A4FCD6
:1022900000210120FFF7A0FCA221BDE81040012091
:1022A0009AE401210846FFF797FC00210120FFF77F
:1022B00093FCA021BDE8104001208DE42DE9F843F6
:1022C00007460E4615469048806880784FEA1018F9
:1022D000002401214046FFF7D7F90AE0305D40EACB
:1022E00007200090012269464046FFF7EDF9641C83
:1022F000A4B22A00A5F10105ADB2EFD100214046FC
:10230000FFF7C2F9BDE8F8832DE9F04FB3B0C8215B
:1023100001A804F047F8DFF8F0A14FF06062DAF8A6
:102320000C00417802EB812B90F80280C678DAF835
:10233000080007794479C078000606D5E01B401CE8
:1023400000FB08F01FFA80F901E008FB06F9002302
:102350004A4659460320FEF7B3F980B2DAF80C106A
:10236000898881422ED1FFF76EFF2C210020FFF7D4
:1023700033FCDAF80800C07800061BD5002506E01B
:10238000424601A90120FFF799FF6D1CADB2BD4285
:10239000F6D34A4659460120FFF790FF641C06E039
:1023A000424601A90120FFF789FF641CA4B2B44290
:1023B000F6D304E04A4659460120FFF77FFF01208B
:1023C0008AF8000033B0BDE8F08F70B503460D46C3
:1023D00016464D488068807804094B48002BC06839
:1023E000008912D00122114601F0D6FE01212046BB
:1023F000FFF74AF9B2B229462046FFF765F92046B1
:10240000BDE870400021FFF73FB90122002101F033
:10241000C3FEEBE770B505460C463B49C968097B2E
:10242000002909D000210120FFF72AFD2246294674
:10243000BDE870400120C8E7224629460120FFF789
:10244000C4FFBDE870400021012019E52DE9F04FDF
:10245000B3B00024C82101A803F0A4FFDFF8A8B09E
:102460004FF06062DBF80C00417802EB812A85783E
:1024700090F80390DBF8080007794679C0780006E9
:1024800004D5F01B401C684382B201E005FB09F251
:10249000002351460320FEF713F980B2DBF80C103D
:1024A000898881428ED1FFF793FE2C210020FFF70F
:1024B000E7FCDBF80800C078000623D54FF00008E1
:1024C00007E0294601A8FFF7A5FF08F101081FFA58
:1024D00088F8B845F5D308E00AEB04002946FFF771
:1024E00099FF601984B27F1CBFB2B742F4D9761C41
:1024F00005E0294601A8FFF78DFF761CB6B24E45D0
:10250000F7D30EE000260AE0708000200AEB0400FA
:102510002946FFF77FFF601984B2761CB6B24E459C
:10252000F4D301208BF800004CE710B51148806807
:10253000807810F00C0F06D0FFF7E6FEBDE81040E3
:102540000120FFF761BBFFF781FFBDE810400120CC
:10255000B8E408490878012805D14868B0F5C87F73
:1025600002D2401C48607047C8680022012140899F
:1025700001F012BE7080002001F00EBB2DE9F04189
:102580000646884617460024002F08D0B8F1000FF1
:1025900008D0B6F1606F08D2201FBDE8F0814FF07F
:1025A000FF30FAE76FF00100F7E73D49F019884284
:1025B00002D36FF00200F0E742F2107506E0AC4281
:1025C00002D36FF00400E8E7641CA4B201F02AFB18
:1025D0000028F4D13A4631464046FEF78FF80120F4
:1025E000DBE72DE9F0410546884617460024E8B2AE
:1025F000291A002F04D0B5F1606F04D2201FCCE758
:102600004FF0FF30C9E7264AE819904202D36FF035
:102610000200C2E701F58071884202D96FF009001B
:10262000BBE742F2107606E0B44202D36FF004003A
:10263000B3E7641CA4B201F0F5FA0028F4D13B46DC
:102640004246294601F0B4FA0028A6D10220A4E7A8
:1026500010B5044601F0E6FA0128FBD02146BDE89A
:102660001040002001F0C7BA88E770B50546E805BC
:1026700013D1002911D04A0AC80501D0012000E079
:102680000020104486B2002405E005EB4420FFF74B
:10269000DFFF641CA4B2B442F7D370BDA1E7000011
:1026A0000080000EF7494978002901D1FEF76BBE82
:1026B000704738B50446032200216846FEF728F823
:1026C000D4F802000090B4F805006080E079207131
:1026D000BDF80000A4F805009DF80200E071607AE2
:1026E00000F00F01012904D0022902D0032905D0EE
:1026F00008E020F00F00401D607203E020F00F00A2
:10270000801D6072207A40F0800020F06000203050
:1027100020F01800207238BD2DE9F8430D46002442
:10272000FEF748F807460026DFF858834AE02819E4
:10273000417B007B01EB002081B20091A41CE4B23C
:10274000C1F3412020B1012815D0022838D12FE053
:10275000A1F500500C3802D198F8001006E0A1F560
:1027600000501A3801D1012100E0FF21281901731E
:10277000641CE4B224E0B1F5085F08D04FF6FF71A5
:102780000A0A281902734173A41CE4B218E03968DC
:10279000D8F808000023421A0320FDF791FF80B209
:1027A000B8F80410884201D10121E9E70221E7E7E6
:1027B000FF212819017341738173C173241DE4B291
:1027C000761CF6B2E87AB042B1D8BDE8F88370B5AD
:1027D0000546FDF7EFFF06462A88100240EA122060
:1027E000103884B2A00703D0241D4FF6FC700440BB
:1027F00005F10E01A34D2246A86801F034FAA8683D
:1028000071682044884200D2A86070BD30B54FF690
:10281000FF7500219B4AD26813790CE001EB41045B
:102820001444A479844204D101EB41001044457959
:1028300003E0491C89B28B42F0D8284630BD2DE90F
:10284000F04707460E461546FDF7BCFF044607EB6A
:1028500047008C4FF96808444079A6F500560B3EB6
:1028600028D0012E7DD0032E7CD0092E79D15DB1E8
:102870004FF41651012D0DD0022D0FD0032D13D082
:10288000BDE8F047FEF70BBBBDE8F0474FF416611B
:10289000FEF705BBBDE8F047FEF701BBBDE8F0471A
:1028A0004FF4E131FEF7FBBABDE8F0474FF41641B3
:1028B000FEF7F5BA012D2FD045F25A564FF0804859
:1028C0004FF400714FF06069022D2BD0032D01D021
:1028D000042D6ED1C8F8F0624846FFF7C6FEC8F86E
:1028E000F062F8680570E2790023921E2146032009
:1028F000FDF7E6FE020AE379A11E5A54E279611E51
:102900005054C82221464846FFF7C8FE03F0AEFDEA
:10291000012003F0DAFCFEE703F0A8FD012003F03C
:10292000D4FCFEE7C8F8F0624846FFF79EFEC8F800
:10293000F0624FF0FF302060F96802200870E27901
:102940000023921E21460320FDF7BAFE020AE37916
:10295000A11E5A54E279611E5054C82221464846AD
:1029600001E026E00AE0FFF799FEC82000F0C5FE6E
:1029700003F07CFD012003F0A8FCFEE70020B87006
:10298000052D16D2DFE805F0150303030300042D1F
:1029900000D103252846FFF739FFA0F57F41FF3915
:1029A00007D00121B970C0B2F870BDE8F047FEF75A
:1029B00052BBBDE8F0872DE9F84380460D46002460
:1029C0000026304F34E02819417B007B01EB0020CA
:1029D00081B20091A41CE4B2C1F3412232B1012AB8
:1029E0000CD0022A16D0032A20D116E02819027B27
:1029F0004046FFF724FF641CE4B217E02819027B6D
:102A00001202407B1043B1F5085F00D1B880A41CCE
:102A1000E4B20BE0241DE4B208E0B1F5185F05D183
:102A20003878042802D12846FFF7D1FE761CF6B28A
:102A3000E87AB042C7D8C8E630B502460020FF2485
:102A4000114B00EB400119444D78954204D8897828
:102A5000914201D3044603E0401CC0B20C28F0D3DD
:102A6000204630BD70B50C46064D03222046E9686D
:102A7000491CFDF756FE48B12078FFF7DDFF0B2813
:102A800006D019E0808000207E640020012070BD07
:102A9000E96860788978884201D0FF280CD1A07855
:102AA000FFF7CAFF0646E8684078FFF7C5FF864291
:102AB00004D0A078FF2801D0002070BD012070BD97
:102AC00030B502464FF6FF750020C549C9680B793D
:102AD00009E000EB40040C44A479944201D105467E
:102AE00003E0401C80B28342F3D8284630BD70B565
:102AF00006460C4615463046FFF7E2FFA0F57F423A
:102B0000FF3A0AD0844208D03046FFF77FFEFEF736
:102B1000A2FA2846BDE87040C4E570BD4078FF28A1
:102B200001D000207047012070478078FF2801D035
:102B3000012070470020704710B504462078FFF749
:102B40007BFF0021FF280BD000EB4002A54810447A
:102B500022784378934203D28078904200D30121B7
:102B6000084610BD2DE9F04106460C466079FFF796
:102B700063FF07466079FFF75FFF994D0B2F1BD06E
:102B8000002871D0E8684078FFF756FF012845D04B
:102B9000E868A279817891426ED1C078E179884263
:102BA0006AD1601DFFF7C8FF002865D02246314674
:102BB000BDE8F04103209AE7E968A0798978884266
:102BC00001D0FF2867D1607900070ED52246314633
:102BD0000120FFF78CFF224631460320FFF787FFD5
:102BE000224631460220FFF782FF6079C00704D0F9
:102BF000224631460320FFF77AFF6079800704D52B
:102C0000224631460120FFF772FF6079400742D526
:102C100022463146BDE8F041022068E76079FFF7BF
:102C20000BFF012815D0E079FF280CD0E968A079C6
:102C30008978884201D0FF282DD122463146BDE84F
:102C4000F041012053E722463146BDE8F041002023
:102C50004DE7E968E079C978884207D122463146D4
:102C6000BDE8F041032042E715E005E02246314689
:102C7000BDE8F04102203AE7601DFFF756FF20B99A
:102C8000601DFFF74BFF002805D022463146BDE806
:102C9000F04101202BE7BDE8F081514E61E028466C
:102CA000FEF75EFB800756D5FEF74DFB0446002C71
:102CB00051D0607A0421B1EB101F4CD1B078B0B97B
:102CC000F1680322491C601DFDF72BFD78B1F06807
:102CD0004078FFF7B1FE022805D0F0684078FFF792
:102CE000ABFE012803D121462846FFF73BFF611DBB
:102CF000A01CFFF7B7FE01282DD1607A00F00F006D
:102D0000012803D021462846FFF755FE607A00F0DF
:102D10000F00012803D0022801D003281BD1284628
:102D2000FEF799F9607A00F00F00012804D002281C
:102D300002D0032805D008E021462846FFF7ECFC26
:102D400003E00E2020800020E0722046FFF7B1FC57
:102D50002046FFF7A7FC6D1CADB2F0680079A842D1
:102D60009DD80025F9E7FDF725FD04461C4D206898
:102D7000A860FDF752FDE8600078022804D003281F
:102D800006D0042821D105E00121697028701CE0DB
:102D900028701AE003F012F8134988420ED1207A05
:102DA00060B92168A1F5004000F094FF20684FF45D
:102DB0000042A0F50040002100F055FF03CC00F0D8
:102DC00089FF012803D004202870FFF766FF052043
:102DD0002870FAE70248807870470148C078704749
:102DE000808000207E6400200042344D2DE9FC41AB
:102DF00004468C4616461F46002100200090019094
:102E000025786B4607E0501A401EC2002CFA02F0EB
:102E10005854491CC9B2A2788A42F4D801212846E4
:102E2000FEF732FC0122611C2846FEF74DFCA27819
:102E300069462846FEF748FC3A4631462846FEF7E2
:102E400039FC044600212846FEF71EFC2046BDE85A
:102E5000FC812DE9FE4FFDF7ADFC0646FDF7DDFCDC
:102E60000446FDF7DAFC471C207800098DF80800BD
:102E700078788DF80900B8788DF80A004FF48064EE
:102E8000787BD7F80750D7F803100191019901EB2F
:102E9000050928B1D7F80E500095B7F812B002E036
:102EA0000095B7F80BB0D6E90010411A009881429E
:102EB00002D20020FDF794FEDFF830A100208AF84E
:102EC00000003068CAF8040002F078FF0146484864
:102ED00081420ED1307A60B93168A1F5004000F02E
:102EE000F9FE30684FF40042A0F50040002100F0E8
:102EF000BAFED6E9000100F0EDFE012808D0A807CF
:102F000003D02D1D4FF6FC700540DDF8048033E042
:102F100003F0ACFA012003F0D8F9FEE708EB040057
:102F2000484504D9A80502D0C5F3090401E04FF4CF
:102F300080644FF480639C4207D200202D4AFF2119
:102F40001154401C80B29842FAD32346294A414684
:102F500002A8FFF74BFF0028F7D0787B012811D09B
:102F600022462449DAF8040000F07DFEDAF8040075
:102F70002044CAF80400A044C845CFD3787B012878
:102F800007D008E021461B48FDF797FEFDF7D2FE6B
:102F9000F1E7FDF7BEFE4FF6FF7331680320009A9C
:102FA000FDF78EFB81B28B4506D09AF80000421CDB
:102FB0008AF80020032884D38B450DD102F0FEFE51
:102FC0000B49884204D10120FDF70AFEBDE8FE8FBF
:102FD0000020FDF705FEF9E702F0F0FE0449884203
:102FE00003D10020FDF7FCFDF0E7FEE79080002014
:102FF0000042344D148A002010B5FDF7DBFB044677
:1030000002F0DCFEFE49884204D1BDE810400020F9
:10301000FDF7E6BDFDF708FC58B103CC00F05AFE01
:10302000C82000F06AFB03F021FA012003F04DF9FB
:10303000FEE7BDE810400020FDF7D2BD10B540F21C
:103040000F320021EF48FDF763FBEF48002141619B
:103050008161C17010BD70B506460C46EA4D6879B5
:10306000FDF7F9FF2969E94B080C1870080A587038
:103070009970E4498878D870C878187108795871BF
:10308000E87800F00F009871487AD871300A187209
:103090005E720B229C72442C01D0332C0AD100208A
:1030A000E9681446521C0D5CD2B21D55401CC0B2DA
:1030B0000F28F6D3BDE87040D448FEF764B910B5C8
:1030C000FEF741F90146487A0A7A40EA0222CD4CDD
:1030D000322060700D32A01CFDF710FBA078E17863
:1030E000000440EA012120790143C7484161617928
:1030F000A279090441EA0221E27911438161217A2E
:1031000001F00F01C17010BD70B54FF6FF761924A4
:10311000FDF7FFFDFDF74EFB0168BA48C27C037C5A
:10312000857C02EB0362437C1B0403EB05231A44FA
:10313000437D007D03EB002085B233460320FDF77D
:10314000BFFA80B2854203D106240120FDF737FB88
:1031500021460120FFF77FFFFFF770FFBDE87040B9
:10316000FDF733BD70B5054600240120FDF72CFBAB
:10317000A54989680AE004EB840201EB4202527817
:10318000AA4201D1204670BD641CE4B28442F2D34D
:10319000FF2070BD10B59B4C00229B49607A5028DF
:1031A00003D1237B062B00D10A70702800D10A704E
:1031B000CA794879824206D0FDF74DFFA01CBDE8D0
:1031C0001040FEF7E0B810BD2DE9F04389B081460C
:1031D00000248C494F7AC87A8A7A40EA02200E305D
:1031E00085B2DFF82482002298F80200401CC0B2A9
:1031F00088F802007F2801D988F8022098F8020098
:1032000000F07F0008706D1C641CA4B2A9B27D4A56
:103210004846FEF731FC08B9032CF5D9D0B1FFF7C9
:103220000DFF0025642000F068FA6D1CADB2102F70
:1032300015D00F26701C81B201AA4846FEF771FC1A
:10324000C4B2C4B19DF80410C80901F07F0140B1B7
:10325000002410E0FFF7F2FE09B0BDE8F0831E265F
:10326000E8E798F80200884207D10124324601A914
:103270006448FDF743FA1CB104E0FFF7DFFEEBE71B
:10328000142DCFD914B1FFF785FFE5E7FFF7D6FE80
:10329000E2E70A2803D00B2803D063207047002000
:1032A00070470120704770B504460E460022142571
:1032B000504205EB800024FA00F101F00F0326FADA
:1032C00000F101F00F000F2B03D0834205D06320E3
:1032D00070BD0F28FCD1632070BD521CD2B2062AEB
:1032E000E6D3632070BD2DE9F041FDF763FA044693
:1032F000454D4FF4E0024FF4C0036879642804D0D0
:103300006869904201D0984201D1E8796871A96951
:1033100028693C4E81423BD0994214D0914212D050
:103320003B4A8A1812D0FFF7BEFF04460A2C1DD074
:103330000B2C1BD02046FFF715FF632C05D0717AAC
:1033400030291CD01EE0FFF725FFD5E0707A102849
:1033500002D0702805D0CFE029791020FFF77BFE3E
:10336000CAE006210120FFF776FEC5E02046FFF700
:1033700090FF632802D0EC71FFF726FFBCE001212B
:103380002970A871FDF767FEB01CFDF7FCFFB3E0E4
:10339000707A1B4F40284AD007DC10280AD00F262D
:1033A000202810D030280DD13BE050287BD0602859
:1033B00008D15FE029791020FFF74DFEFFF73EFEB0
:1033C000FDF703FC98E0FDF733FA02F0F7FCB84292
:1033D0000ED1207A60B92168A1F5004000F07AFC96
:1033E00020684FF40042A0F50040002100F03BFCB3
:1033F00003CC00F06FFC6E70062101200AE0000093
:103400000042344D148E002098800020239100202B
:10341000565555FFFFF71FFEFFF710FEFDF7D5FBD2
:103420006AE06E7006210120FFF715FE64E06878FF
:10343000E978884204D106210120FFF70CFE5BE009
:10344000401C00F00F0088420FD1F07AB17A40EAB8
:1034500001216348FDF731FCFDF76CFC06210120DA
:10346000FFF7F9FDE878687046E015210120FFF7C5
:10347000F2FD41E0FDF7D8F94FF0A534A04213D199
:10348000FDF79AF901280FD002F098FCB84223D139
:1034900006210120FFF7DFFDFDF781FD0028FBD1AC
:1034A000FDF79EFB28E025E006210120FFF7D3FD74
:1034B000FDF775FD0028FBD1FDF7B6F9A04207D155
:1034C00002F07CFCB84203D10120FDF789FB13E038
:1034D0000020FDF785FB0FE015210120FFF7BBFD64
:1034E000FDF75DFD0028FBD102F0C0FF012002F0D6
:1034F000ECFEFEE7FFF708FEBDE8F0419EE5012087
:10350000FDF762F90646FDF778F9364DA860FDF73C
:1035100084F9E8604421297164216971017B427B4F
:103520000904807B41EA02210143296100F0E1F8AE
:10353000E86100244BE0EC712046FDF711FF022802
:1035400005D0032819D06879642831D032E0FFF71C
:10355000B6FD287801280AD1E879A979884206D0F1
:103560002969A869884202D0FFF768FD24E000F0CD
:10357000C0F8E861FFF7B7FE1EE0FFF7A0FD68792D
:10358000642801D1E87968716869B0F5E00F03D06B
:10359000B0F5C00F05D008E015210120FFF75BFD55
:1035A00003E015210120FFF756FDFFF747FD03E07B
:1035B000E8796871FFF742FD00F09BF8E969401A6D
:1035C0000949884201D9FFF717FD641CA4B2B4422F
:1035D000AFD2B0E70348007870470248807970475F
:1035E000208E00209880002040771B0010B55449A1
:1035F0004FF02060086052495248083108600020AE
:10360000091D0860091D08604D4B18331870591CBE
:103610000870491C0870491C08704C1C2070891CDB
:103620000870491C0870491C0870491C086044490E
:10363000401E2C3108604449086048608860C860BA
:1036400008614861C1F80001C1F80401C1F808012E
:10365000C1F80C01C1F81001C1F814013B48002168
:103660004FF0F03204C0491C2A29FBDB34481430E7
:1036700037490160080618603648206010BD10B553
:10368000354B19564022002905DA2D4C01F00F0167
:1036900010340A5501E02D4C0A551856012100F04E
:1036A0001F02914040094FF0E02202EB8000C0F879
:1036B000001110BD28490C390870704710B5FDF78E
:1036C00017FAFEF746FF24490C398868401C8860C9
:1036D000C00707D04868401C4860087820B1FDF753
:1036E0009CFE01E0FDF7A8FE1C4945F25A50086017
:1036F00010BD19480C384068704710B50246FFF7F6
:10370000F8FF014645F25A535C0701E0C4F8F03275
:10371000FFF7EFFF401A9042F8D310BD002000F0F1
:1037200033BF012000F047BF022000F05DBF03203F
:1037300000F073BF042000F089BF052000F09FBF98
:1037400004ED00E00000FA0580E100E000E400E0A4
:103750001010100010000020C4800020F002004073
:1037600070B5A0F1A002121100F00F04404B53F805
:103770002250012200F00F008240012901D029B11E
:1037800008E091B2284602F03BF803E091B22846E7
:1037900002F038F8A868022806D2284602F039F864
:1037A000E04000F0010070BD284602F02DF8E04036
:1037B00000F0010070BD70B5A0F1A002121100F080
:1037C0000F042B4B53F82250012200F00F008240CF
:1037D000012901D029B108E091B2284602F010F881
:1037E00003E091B2284602F00DF8284602F00CF8EA
:1037F000E04000F0010070BD70B50D46A0F1A001E1
:103800000A1100F00F041A4850F82260C5F3C202F2
:103810002146304601F08FFF05F007022146304671
:1038200001F055FF280606D521463046BDE8704018
:10383000022201F097BF680606D521463046BDE852
:103840007040032201F08EBF21463046BDE8704033
:10385000002201F087BFA0F1A002121100F00F03B7
:10386000034850F82200CAB2194601F092BF000086
:10387000A46400203EB5044602F0EAFC01220521C2
:10388000104602F0EBF901218DF8001000228DF8AE
:1038900001208DF80210ADF80420AD48B0FBF4F023
:1038A00002908DF806109DE8070002F0DCFCA949A3
:1038B00045F25A500860BDE83E40012002F005BDC7
:1038C000A54951F820007047002900D10121A24AE2
:1038D00042F8201070477047A049002008604860F7
:1038E0008860C1F80001C1F80401C1F808019C4AD0
:1038F000C1F800229B4AC1F804229B4AC1F8082261
:10390000C1F80003C1F80403C1F80803974908602F
:10391000091D0860091D086095490860091D0860B7
:10392000091D086093490860091D0860091D0860A9
:10393000704770B586B00024039404940820059065
:1039400003A801F099FF4FF082450421284601F0B9
:1039500093F802F033FA8849884207D102F088FDD3
:10396000064601F0BDFC304602F086FD01212A200A
:1039700001F09CFF0021802002F0CEF8002002F030
:10398000BBF8002002F088F8062001F0A9FF00BF74
:1039900000BF00BF00BF012002F08EF802F056F910
:1039A000C006FBD4002002F097F80120CDE90040CA
:1039B00000231F220321184602F021F902F04AF9E0
:1039C0000028FBDA012002F097F8012002F064F8E9
:1039D000072001F085FF002002F08EF8012002F0A0
:1039E0005BF80221284601F047F864490020FFF700
:1039F0006BFF0020FFF764FF01460120FFF764FF23
:103A00000020FFF75DFF41080220FFF75DFF5C4CDF
:103A10000121204601F0ECFF0121204602F012F8BE
:103A2000584C0121204601F0F8FF0121204602F008
:103A30001EF8042207210C2002F010F94022042174
:103A4000062002F00BF9012001F036FE4E4C032255
:103A50000A21204601F03BFE02220A21204601F005
:103A60006AFE00220A21204601F07CFE01220A2182
:103A7000204601F097FE01220021082002F0EEF816
:103A800006B070BD10B5414C0021204601F0A3FDE9
:103A900080220721204601F0C0FDA113204601F03D
:103AA00003FE0121204601F0D4FD0120FFF708FFAD
:103AB0004FF4FA61B0FBF1F0401EB0F1807F09D203
:103AC0004FF0E0214861324AF020107000208861F8
:103AD0000720086110BD10B5FFF72BFFFFF7FBFEB5
:103AE000FFF7D0FF2B48016821F04041016010BD75
:103AF000704702F0BBFC012002F0E7FBFEE700216B
:103B0000016002F0B3FC012002F0DFFBFEE702F0EF
:103B1000ADFC012002F0D9FBFEE702F0A7FC01207A
:103B200002F0D3FBFEE702F0A1FC012002F0CDFB86
:103B3000FEE702F09BFC012002F0C7FBFEE702F06B
:103B400095FC012002F0C1FBFEE74FF400407047F6
:103B50000048E801F0020040CC8000200010004046
:103B60003333030000337700FF03E00F00140040FD
:103B700000150040001600400042344D0090D00374
:103B8000D07FFF03373F73800012004000060040E3
:103B900023ED00E034EF00E010B5294C022120466F
:103BA00000F06AFF2046BDE81040002101F014B982
:103BB000F8B50E4617461C46214D0021284600F058
:103BC00063FF40F2014000903B46224631462846C2
:103BD00001F0A9FA04460121284600F055FF0CB176
:103BE0000020F8BD0120F8BD10B510461A46FCF7BC
:103BF00085FD012010BD70B50C46114D00212846F1
:103C000000F042FF0F4B22460221284601F038FA0D
:103C100004460121284600F037FF0CB1002070BD9A
:103C2000012070BD10B5064801F00AFA08B1012064
:103C300010BD002010BD10B5FCF742FD80B210BDD4
:103C400000100041A080020010B500F092FE4FF07D
:103C500082440221204600F00FFF2046BDE81040BC
:103C6000002101F0B9B82DE9F84305460E4690074A
:103C700005D0121D4FF6FC7002EA000400E0144665
:103C8000A80702D00120BDE8F8832819B0F5801FED
:103C900001D90120F7E74FF082470021384600F0B4
:103CA000F3FE02F0E5FB804640F20140009033460F
:103CB00022462946384601F036FA0446404602F0CC
:103CC000DBFB0121384600F0DFFE0CB10020DAE713
:103CD0000120D8E72DE9F04704460D46281B610571
:103CE00051EA455102D00120BDE8F08718B1AC423D
:103CF00001D2400501D00120F6E74FF082480021B3
:103D0000404600F0C1FE45F25A56DFF8C0907707F2
:103D100010E002F0ADFB82464B46224604214046AD
:103D200001F0AEF970B1C7F8F062504602F0A4FBA2
:103D300004F50064AC42ECD30121404600F0A4FE3F
:103D40000020D1E7504602F097FB0120CCE710B5E8
:103D50004FF0824001F074F908B1012010BD00203D
:103D600010BD0120704770B504464FF08245002118
:103D7000284600F089FE02F07BFB0646144B2246E3
:103D80000221284601F07CF90446304602F074FB1B
:103D90000121284600F078FE20B270BD10B5034620
:103DA00008461946FCF7AAFC012010BD10B5074BC8
:103DB000002208214FF0824001F062F9C0B210BD2C
:103DC00010B5FCF77DFC80B210BD0000D2480300A6
:103DD000A080020070B50C4603282AD2EC4951F8A5
:103DE00020500021284602F09EF80220FFF768FDCF
:103DF000E168B0FBF1F1491E284602F0D7F8A0783F
:103E000040F40852E178114322690A43E3881343DE
:103E100021891943284602F0C5F801231A4619469C
:103E2000284602F072F82846BDE87040002102F0F2
:103E3000ACB870BD70B50D46D54951F82040002191
:103E4000204602F070F8082D02D0092D05D008E0B8
:103E5000606820F00300606003E0606840F00100EB
:103E600060602046BDE87040012102F05CB82DE999
:103E7000FC470C461546032802D30020BDE8FC870A
:103E8000C34951F820804FF00109C24F4FF4167614
:103E90007DE0404602F075F8404602F074F8C043F9
:103EA000C007F6D0404602F06EF8C043C00602D408
:103EB000404602F066F8384601F0F4FB81B26846ED
:103EC000FCF7A1FB1BE0384601F0ECFBADF802006B
:103ED00000216846FCF7A2FB012803D1BDF80400CD
:103EE000B0420CD3404602F04EF8C043800706D5DE
:103EF00000240021404602F016F82046BEE7404666
:103F000002F041F8C0438007DDD40021404602F0B2
:103F10000AF8404602F048F8800710D02188404651
:103F200002F02DF8A41C0121404601F0FCFF3846A8
:103F300001F0B8FB81B26846FCF765FB21E021780F
:103F4000404602F01CF8641CEDE7384601F0AAFB7D
:103F5000ADF8020000216846FCF760FB012803D1A0
:103F6000BDF80400B0420CD3404602F00CF8C04348
:103F7000C00706D000240021404601F0D4FF2046AF
:103F80007CE7404601F0FFFFC043C007DDD12800B9
:103F9000A5F10105ADB27FF47FAF404601F0F1FF1E
:103FA000384601F07FFB81B26846FCF72CFB1BE032
:103FB000384601F077FBADF8020000216846FCF7B7
:103FC0002DFB012803D1BDF80400B0420CD34046BC
:103FD00001F0D9FFC043800706D5002400214046E8
:103FE00001F0A1FF204649E7404601F0CCFFC04365
:103FF0008007DDD40021404601F095FF48463DE7AB
:10400000032801D30020704731E72DE9FC470D4616
:104010001446032801D3002030E75D4951F8208081
:104020004FF001095B4F4FF4167676E0404601F001
:10403000A8FF404601F0A7FFC043C007F6D04046A6
:1040400001F0A1FFC043C00602D4404601F099FF31
:10405000384601F027FB81B26846FCF7D4FA1BE032
:10406000384601F01FFBADF8020000216846FCF75E
:10407000D5FA012803D1BDF80400B0420CD3404664
:1040800001F081FFC043800706D50024002140468F
:1040900001F049FF2046F1E6404601F074FFC043BD
:1040A0008007DDD40021404601F03DFF002140465D
:1040B00001F065FF0121404601F035FF384601F06F
:1040C000F1FA81B26846FCF79EFA1BE0384601F02F
:1040D000E9FAADF8020000216846FCF79FFA0128D2
:1040E00003D1BDF80400B0420CD3404601F04BFFB1
:1040F000C043C00706D000240021404601F013FF52
:104100002046BBE6404601F03EFFC043C007DDD17C
:10411000404601F036FF05F8010B2000A4F1010430
:10412000A4B286D1384601F0BDFA81B26846FCF7E8
:104130006AFA1BE0384601F0B5FAADF8020000213A
:104140006846FCF76BFA012803D1BDF80400B042C1
:104150000CD3404601F017FFC043800706D500246A
:104160000021404601F0DFFE204687E6404601F090
:104170000AFFC0438007DDD40021404601F0D3FE92
:1041800048467BE6032801D3002070473DE7000046
:10419000C064002000060040B0F5B56F0AD0A0F55D
:1041A0007F43FF3B06D01AB9754A1288520401D4E6
:1041B000FFF7D6BA704710B5B0F5B56F07D0A0F5C8
:1041C0007F42FF3A03D06E4A1288120401D50020C4
:1041D00010BD4FF0FF32022904D01146FFF7C0FA9C
:1041E000C0B210BD1146FFF7E6FAC0B210BD10B55F
:1041F00004460B460021B4F5B56F70D0A4F57F409E
:10420000FF386CD01AB95E480088800467D403F088
:104210001F000E2813D0012B49D0EBB3042B71D013
:10422000052B70D0032B5AD1AF2C07D0CF2C05D043
:10423000D32C03D0A4F58070033870D197E0180612
:1042400005D42046BDE810401021FFF7D5BACE2B8B
:104250000DD08E2B15D0EE2B1DD000212046FFF760
:104260009BFF2046BDE810400821FFF7C5BA012199
:104270002046FFF791FF2046BDE810400021FFF7E0
:10428000BBBA00212046FFF787FF2046BDE810405B
:104290000021FFF7B1BA00E028E001212046FFF736
:1042A0007BFF2046BDE810400821FFF7A5BACF2CC0
:1042B00016D008DCAB2C10D0B92C0ED0C12C0CD0F1
:1042C000C62C0ED109E0D62C07D0ED2C05D0F42C4D
:1042D00003D0A4F58070093803D1012101E04EE03C
:1042E00003212046BDE81040FFF786BACE2C17D038
:1042F0000ADCAA2C11D0B82C0FD0C02C0DD0C52CA4
:104300000FD10AE014E022E0D72C06D0EE2C04D026
:10431000F52C02D0B4F5847F03D1012101E027E020
:1043200003212046BDE8104041F01001FFF764BAB8
:10433000AE2C06D0CE2C04D0D22C02D0B4F5817F86
:1043400000D101212046BDE81040FFF755BAAD2C41
:1043500007D0D12C05D0DF2C03D0A4F58070013814
:1043600000D101212046BDE81040FFF745BA0121E8
:104370002046BDE8104041F01001FFF73DBA10BDE6
:10438000E080002002460020062A12D2DFE802F078
:10439000030507090B0DF84808E0F84806E0F8485F
:1043A00004E0F84802E0F84800E0F84801220A80FA
:1043B000704702220A80704708B56946FFF7E2FF9E
:1043C00090F85C0108BD38B50C466946FFF7DAFF86
:1043D00080F85B4138BD08B56946FFF7D3FF90F818
:1043E0005B0108BD38B50C466946FFF7CBFF80F886
:1043F0005D4138BDC1888088814202D14FF49670FA
:10440000704703D2A0EB010080B27047A1EB00001F
:10441000C0F5967080B27047DD4A52F8200000293E
:1044200003D00122002101F0BFBE0022114601F09D
:10443000BBBED74A52F82000002903D00122032135
:1044400001F0B2BE0022032101F0AEBE2DE9F84317
:104450000446CF4850F82480404601F0C5FE10F0D5
:104460001E0F02D0404601F0BFFE404601F0BCFEE8
:10447000C043400626D469462046FFF783FF044622
:10448000002C1FD0BDF8000002281BD02046FFF7EB
:10449000B1FF4FF496760027B04215D084F85C71D6
:1044A000A18804F12A00095C404601F070FE01F089
:1044B000DDFFA088401C80B2A080B04200D3A7805E
:1044C00001F0D2FFBDE8F88394F85B0101250128D3
:1044D00007D084F8585100220321404601F064FEC1
:1044E000F0E794F85D01012807D00022032140463F
:1044F00001F05AFE84F85C51E4E72046FFF77AFFAA
:10450000B0420AD104F5AC74257000220321404664
:1045100001F04AFEE7706771D4E7002203214046AC
:1045200001F042FE84F85C51CCE7F8B504469848A7
:1045300050F82460304601F02CFE054669462046BE
:10454000FFF720FF0446002C0FD0BDF80000022822
:104550000BD0002084F85901304601F045FE10F0E0
:104560001E0F03D0304601F03FFEF8BD6188481CA5
:1045700080B21E2800D3002022888242F5D004F1A8
:104580000C028D546080F8BD10B58248816801F03E
:104590001E04062C0AD0600702D50020FFF7C5FFD5
:1045A000E00607D5BDE8104000204FE7BDE8104009
:1045B00001F01ABE10BD10B57748006800F01E0467
:1045C000062C0AD0600702D50120FFF7AEFFE006F7
:1045D00009D5BDE81040012038E76F48BDE810401C
:1045E000083801F001BE10BD10B56C48006800F03D
:1045F0001E04062C0AD0600702D50220FFF795FFA3
:10460000E00609D5BDE8104002201FE76348BDE879
:104610001040083801F0E8BD10BD10B560480068D2
:1046200000F01E04062C0AD0600702D50320FFF715
:104630007CFFE00609D5BDE81040032006E7584896
:10464000BDE81040083801F0CFBD10BD10B5554889
:10465000006800F01E04062C0AD0600702D5042072
:10466000FFF763FFE00609D5BDE810400420EDE642
:104670004C48BDE81040083801F0B6BD10BD10B57B
:104680004948006800F01E04062C0AD0600702D5D5
:104690000520FFF74AFFE00609D5BDE810400520D8
:1046A000D4E64148BDE81040083801F09DBD10BD7A
:1046B00038B50C466946FFF765FE00281FD0BDF8E7
:1046C000001002291BD0002343800380C380838015
:1046D00080F8563180F85831002281180B73521C33
:1046E00092B21E2AF9D300224FF49675811881F8F0
:1046F0002A30521C92B2AA42F8D380F85A4138BDEF
:1047000038B50C46224951F82050207A8DF8000027
:10471000207C8DF80100207B8DF802006946284638
:1047200001F060FC0120FFF7CBF8820828466168A1
:1047300001F04AFC4021284601F07BFD01220021C6
:10474000284601F031FD01220221284601F02CFD0E
:1047500038BDF8B50D466946FFF714FE044600263D
:1047600024B3BDF80000022820D060882188884248
:104770001FD100272E802AE04C910020AA92002011
:104780000894002066950020C496002022980020FE
:10479000CC64002000800040088100400882004076
:1047A0000883004008840040088500402E800020D7
:1047B000F8BD01F05DFE0146208804F10C02875C23
:1047C000401C208001202880084601F055FE01F0A1
:1047D0004FFE21881E2900D3268001F04DFE384669
:1047E000F8BDF8B50E4617466946FFF7CBFD48B150
:1047F000BDF80010022905D00024002300F10C01AF
:10480000002215E00020F8BDB0F802C00588AC45D4
:1048100001D12046F8BD6D5CF554641CA4B2058836
:104820006D1CADB205801E2D00D302805B1C9BB2B7
:10483000BB42E9D32046F8BD08B56946FFF7A2FDA3
:1048400000280BD0BDF80010022907D0002100225B
:1048500043181A73491C89B21E29F9D308BDF8B54B
:104860000E4615466946FFF78DFD044654B1BDF866
:104870000000022806D02046FFF7BCFDB04203D856
:10488000FF20F8BDFF20F8BDE08820816081002076
:1048900004F12A024FF4967C00270BE0E388295CA0
:1048A0009954E188491C8BB2E380634500D3E780CB
:1048B000401C80B2B042F1D30120F8BDF8B50646E5
:1048C0000D4669463046FFF75DFD0446002C0CD0CE
:1048D000BDF80000022808D001213046FFF7A9FDED
:1048E00084F856513046FFF7B1FDF8BD38B50C4697
:1048F0006946FFF747FD002805D0BDF80020022AD1
:1049000001D080F8564138BD38B56946FFF73AFD09
:10491000044674B1BDF8000002280AD001F0A8FDD9
:1049200094F85811012906D0002501F0A5FD28466C
:1049300038BD002038BD0125002184F85811F4E766
:1049400070B54FF08246326800F44075AA43B369EF
:1049500000F04074A343012908D100F4807100F4F1
:104960000070014301D02A4300E023433260B36169
:1049700070BD30B54FF4407400212046FFF7E0FFD2
:10498000250401212846FFF7DBFF00212846FFF719
:10499000D7FF2046BDE830400121D1E710B5002106
:1049A0004FF44070FFF7CCFF4FF0407401212046D8
:1049B000FFF7C6FF2046BDE810400021C0E70121F7
:1049C0004FF44070BCE74FF08240006870474FF0F2
:1049D00082410860704730B54FF082431A6D196804
:1049E00042F30004641CC2F300152C4306D021F4EA
:1049F000003101280AD141F4003107E0D20605D484
:104A000021F48031012801D141F48031196030BD99
:104A10004FF08241012806D0002803D1886940F078
:104A2000804088617047F9488860F9488860F94893
:104A3000886070474FF082431A6A22F0FF02012912
:104A400000D102431A6270474FF082435A69824391
:104A5000012900D102435A6170474FF0824201F0B0
:104A60000041904203D19069014391617047EA4A45
:104A70005069014351617047026822F00F0201F052
:104A80000F01114301607047002908D04FF08241A7
:104A900088420BD1886940F0004088617047DF4947
:104AA0004160DF494160DF4941607047DA48416950
:104AB00041F0004141617047A0F10A0301214FF02C
:104AC0008242072B05D8801DD36881408B43D36079
:104AD0007047A0F114030E2B05D81338D36881401A
:104AE0008B43D3607047A0F12803072B05D81838F3
:104AF000136981408B4313617047A0F132030E2B81
:104B000005D83138136981408B43136170474638AB
:104B10000F28FBD8C04AD36881408B43D3607047CD
:104B2000A0F10A0301214FF08242072B05D8801D16
:104B3000D36881400B43D3607047A0F114030E2B60
:104B400005D81338D36881400B43D3607047A0F178
:104B50002803072B05D81838136981400B431361CC
:104B60007047A0F132030E2B05D83138136981400C
:104B70000B431361704746380F28FBD8A64AD36809
:104B800081400B43D3607047B0F5004F24D2B0F59D
:104B9000805F01D20A207047B0F5005F01D20B2080
:104BA0007047B0F5405F01D20C207047B0F5804FE0
:104BB00001D20D207047B0F5A04F01D20E207047F2
:104BC000B0F5C04F01D20F207047B0F5E04F01D2D1
:104BD0001020704711207047B0F5002F47D2B0F574
:104BE000803F01D214207047B0F5C03F01D215209C
:104BF0007047B0F5003F01D216207047B0F5203F56
:104C000001D217207047B0F5403F01D218207047FD
:104C1000B0F5603F01D219207047B0F5802F01D266
:104C20001A207047B0F5902F01D21B207047B0F5C5
:104C3000A02F01D21C207047B0F5B02F01D21D204B
:104C40007047B0F5C02F01D21E207047B0F5D02FAD
:104C500001D21F207047B0F5E02F01D2202070470D
:104C6000B0F5F02F01D22120704722207047B0F517
:104C7000082F24D2B0F5012F01D228207047B0F5BB
:104C8000022F01D229207047B0F5032F01D22A202C
:104C90007047B0F5042F01D22B207047B0F5052FD7
:104CA00001D22C207047B0F5062F01D22D2070477D
:104CB000B0F5072F01D22E2070472F207047B0F596
:104CC000801F01D240207047574988424CD2574933
:104CD000884201D2462070475549884201D2472078
:104CE00070475449884201D248207047524988424F
:104CF00001D2492070475149884201D24A20704769
:104D00004F49884201D24B2070474E49884201D218
:104D10004C2070474C49884201D24D2070474B4986
:104D2000884201D24E2070474949884201D24F2023
:104D300070474849884201D250207047464988420E
:104D400001D2512070474549884201D25220704714
:104D50004349884201D2532070474249884201D2D8
:104D600054207047552070470020704700204FF0B6
:104D70008241096D01F01101002900D10120704725
:104D800000B502460B46FFF7F1FF01280AD1C10426
:104D90008A4202D202F5002204E0A2F500208842F5
:104DA00000D202461046FFF7EFFE012B02D05DF85D
:104DB00004EB81E65DF804EBB2E64FF082418842F5
:104DC00007D1086D10F0110F01D0C868704708694D
:104DD00070471148C068704770B54FF08245A842CF
:104DE00042D1A86920F48074012904D00B2000F07E
:104DF000C2FBAC6170BD44F4807407210B2000F04D
:104E0000C6FB0B2000F0ABFBF3E700009A785634AA
:104E1000AB896745BC9A785600100041674523016D
:104E200078563412896745230080000E0008000E72
:104E30000010000E0018000E0020000E0028000ECA
:104E40000030000E0038000E0040000E0048000E3A
:104E50000050000E0058000E0060000E0068000EAA
:104E60000070000E0078000EFA4DA842C2D16869A9
:104E700020F48074012904D00C2000F07CFB6C61CC
:104E800070BD44F4807407210C2000F080FB0C20DE
:104E900000F065FBF3E74FF08241884201D1C86919
:104EA0007047EC48806970474FF08242904201D1D0
:104EB000D1617047E74881617047036B8B43012ADA
:104EC00000D10B4303637047406B7047006B704722
:104ED000090281631102C163704700B503464FF0B8
:104EE0008242934263D11846FFF7D5FFC00508D52B
:104EF00000BF00BF00BF00BF00BFD06940F480709A
:104F0000D0611846FFF7C7FF800508D500BF00BF76
:104F100000BF00BF00BFD06940F40070D0611846E8
:104F2000FFF7B9FFC00308D500BF00BF00BF00BF37
:104F300000BFD06940F48030D0611846FFF7ABFF66
:104F4000400308D500BF00BF00BF00BF00BFD0694D
:104F500040F48020D0611846FFF79DFF800308D5FC
:104F600000BF00BF00BF00BF00BFD06940F40030E9
:104F7000D0611846FFF78FFF000308D500BF00BFC0
:104F800000BF00BF00BFD06940F40020D0611846C8
:104F9000FFF781FFC00208D500BF00BF00BF00BF00
:104FA00000BFD06940F48010D06100BF00BD18463A
:104FB000FFF771FFA74AC00508D500BF00BF00BFBB
:104FC00000BF00BF906940F4807090611846FFF701
:104FD00062FF800508D500BF00BF00BF00BF00BF53
:104FE000906940F4007090611846FFF754FFC003C9
:104FF00008D500BF00BF00BF00BF00BF906940F4EC
:10500000803090611846FFF746FF400308D500BF87
:1050100000BF00BF00BF00BF906940F480209061D6
:105020001846FFF738FFC00208D500BF00BF00BF19
:1050300000BF00BF906940F48010906100BF00BDC8
:105040004FF08241884203D1C869C0F30000704725
:1050500080488069C0F30000704710B504460A46D6
:10506000FF2304E01346521E43B100BF00BF204699
:10507000FFF7E6FF0028F5D1184610BD002010BD4F
:105080002DE9F04705460C4691469A46FFF79BFCF2
:105090008046FFF783FC4FF082466E4FB54204D145
:1050A000306840F00070306003E0386840F0007015
:1050B000386000BF00BF00BF00BF51462846FFF761
:1050C000CCFF30B1B54207D1B069A0432043B061F5
:1050D00006E00020BDE8F0877869A04320437861AE
:1050E0000020C9F8000051462846FFF7B6FF48B136
:1050F000B54209D1B069A043B061306820F00070BA
:10510000306008E00020E5E77869A04378613868FE
:1051100020F0007038602846FFF7DFFE4046FFF7BA
:1051200056FC0120D6E72DE9F84F064689469246FF
:105130001D46DDF828B0FFF746FC0090FFF72EFC77
:105140004FF08248434F464506D1D8F8000040F062
:105150000070C8F8000003E0386840F00070386064
:1051600000BF00BF00BF00BF00BF00BF00BF00BF47
:1051700059463046FFF771FF60B100BF00BF00BF66
:1051800000BF464509D1D8F8180040F00100C8F822
:10519000180006E00020BDE8F88F786940F00100B3
:1051A000786100240CE001CD49F8040000BF00BF85
:1051B00000BF00BF59463046FFF74FFFA8B1241D7E
:1051C0005445F0D300BF00BF00BF00BF46450ED11D
:1051D000D8F8180020F00100C8F81800D8F800002E
:1051E00020F00070C8F8000009E00020D3E77869DB
:1051F00020F001007861386820F000703860304697
:10520000FFF76BFE0098FFF7E2FB0120C3E7F0B564
:105210004618054600240CE015F8017B12F801CB76
:10522000674501D0061906E05B1E01D30020F0BDE2
:10523000641C8C42F0D33046F0BDF0B5002400254C
:105240000DE050F8246051F82470BE4204D000EB09
:10525000840506E0001000415B1E04D0641C9442EB
:10526000EFD32846F0BD0120F0BDF8B5CE4E009634
:105270000120FFF7CDFB4FF08244206840F0007022
:105280002060CA4F20463946FFF7E7FEA06940F08C
:105290000200A061C64D0020286039462046FFF775
:1052A000DCFEA06920F00200A061A06940F00100CE
:1052B000A0612E6039462046FFF7CFFEA06920F09E
:1052C0000100A061206820F0007020600020FFF73E
:1052D0009FFB3B46012269462846FFF7AEFFF8BD1B
:1052E00030B54FF082452C6DE00709D0AE482865F7
:1052F000FFF7BBFF08B1204630BD286D00F0110458
:10530000204630BDF8B5002500950120FFF780FB51
:105310004FF08244206840F000702060A34F204688
:105320003946FFF79AFEA06940F00200A061A04E46
:10533000356039462046FFF790FEA06920F0020054
:10534000A061206820F0007020600020FFF760FB63
:105350003B46012269463046FFF76FFFF8BD2DE955
:10536000F8414FF00008CDF800804FF08244206DE6
:1053700010F0110F06D000F01100102804D0012009
:10538000BDE8F881012500E002250120FFF740FB80
:10539000206840F000702060844F20463946FFF7B7
:1053A0005CFEA06940F00200A061814EC6F800805A
:1053B00039462046FFF751FEA06920F00200A061A7
:1053C000A06940F00100A061E0682169E16020610E
:1053D000012D03D0022D05D00120D1E772480090A5
:1053E000306003E070481038009030603946204645
:1053F000FFF733FEA06920F00100A061206820F0D3
:10540000007020600020FFF703FB3B460122694645
:105410003046FFF712FFB3E74FF08241884202D1D6
:105420000868C00F704763480068C00F70474FF0AE
:10543000824290420BD1012904D0106840F0004014
:1054400010607047106820F0004010607047594AA3
:105450009042FBD1012904D0106840F00040106058
:105460007047106820F00040106070472DE9F0414F
:105470004FF08244A6694F4B5D69B1F5006F16D0BD
:10548000B1F5806F69D126F4806625F480654FF40C
:1054900080577900012A40D0002A5ED1A04253D122
:1054A000A6613946BDE8F041104600F067BB26F41E
:1054B000006125F40065012A09D0002A4DD1A042DF
:1054C00023D1A161BDE8F0410B2000F054B8A04207
:1054D0000CD1A06940F40060A06100210B2000F015
:1054E00056F8BDE8F0410B2000F039B8984234D1AD
:1054F000586940F40060586100210C2000F047F822
:10550000BDE8F0410C2000F02AB8984225D15D6139
:10551000BDE8F0410C2000F02EB8A04209D146F4BD
:105520008060A0613946BDE8F0410122002000F012
:1055300025BB984211D145F480605861BDE8F04127
:105540000122002000F01ABB984206D15D61BDE83F
:10555000F0410022104600F011BBBDE8F08100F0E0
:105560001F020121914040094FF0E02202EB800030
:10557000C0F80011704700F01F020121914040095E
:105580004FF0E02202EB8000C0F88011704709075D
:10559000090E002804DA084A00F00F008154704711
:1055A000064A815470470000100F3C5A40420F00D9
:1055B0000006000F0010004114ED00E000E400E0E0
:1055C000002181607047026801F0020122F00202AE
:1055D0000A430260704770B504460D463448844261
:1055E00008D10121402000F003FA0121402000F001
:1055F00029FA0AE02F48844207D10121802000F0D7
:10560000F7F90121802000F01DFA29462046FFF716
:10561000DAFF2046BDE87040D2E7254B984202D120
:105620000A2000F01BBB234B984202D10B2000F054
:1056300015BB70471E4A4FF08041904204D1D1F80B
:10564000A400C0F302207047D1F8A400C0F30260A8
:105650007047002904D0016841F0010101607047E2
:10566000016821F0010101607047002904D0016840
:1056700041F4807101607047016821F4807101601C
:105680007047002904D0016841F40071016070473F
:10569000016821F4007101607047C1607047C06803
:1056A00080B27047806870474160704740687047BB
:1056B00000060040000700405749012802D00020A2
:1056C0000860704715200860512008607047F0B5E9
:1056D00002F00104C2F3400301260227C2F3800254
:1056E000072915D9051D05F07045401B001D45F023
:1056F000007C0CEB4010083900EB01152C6006EB28
:10570000810440F8243007EB810140F82120F0BDEE
:1057100000F0704545F0007C401B0CEB401000EBA6
:1057200001152C6006EB810440F8243007EB810161
:1057300040F82120F0BD30B500F1080303F07043BC
:10574000C01A43F00075083005EB401002F0010468
:1057500040F83140012303EB4101C2F3400240F81D
:10576000212030BD30B500F10C0303F07043C01AA6
:1057700043F000750C3005EB401002F0010440F8D6
:105780003140012303EB4101C2F3400240F82120E4
:1057900030BD10B5436901248C40A3438A401A43AD
:1057A000426110BD10B5036901248C40A343012A56
:1057B00000D12343036110BD70B5066A490003247C
:1057C0008C40A64302FA01F535430562002A0BD04E
:1057D000012A03D0022A01D0032A04D1826AA243FB
:1057E0008B401343836270BD816AA143816270BDA7
:1057F000006A7047806A7047406A7047416270472C
:1058000081637047C1637047406B80B2704701632A
:105810007047006B80B27047F01F004021490020A4
:105820000860BFF34F8F30BF00BF00BF00BF00BF95
:1058300070471C490420086030BF00BF00BF00BF94
:1058400000BF7047184957220A604FF075020A607E
:1058500051F8882C0368C26842EAC3124368806822
:105860004FEA431343EA001042EA000241F8882C51
:105870004FF00000086070470B4957220A604FF054
:1058800075020A6051F8802CD0E90023806842EA52
:10589000030242EA000241F8802C4FF00000086049
:1058A0007047000010ED00E0F0000040FB4A572375
:1058B00013604FF0750342F8F039012904D0116CE0
:1058C00081431164002005E0116C814301431164A0
:1058D000F8E7401C6428FCD30020C2F8F0007047B1
:1058E000EE4957220A604FF075020A6051F8AC2C5D
:1058F00060F3020241F8AC2C4FF0000008607047E2
:1059000010B5E648572101607521016050F8EC1C84
:1059100041F4407140F8EC1C002101600020FFF7C9
:10592000DFFF00218A20FFF7C1FFBDE81040FFF72D
:1059300080BFDA4A572313604FF0750342F8F039FD
:10594000012906D05168814351600020C2F8F0005F
:1059500070475168814301435160F6E74FF0804042
:105960004068C0F301107047CC4A572313604FF0D2
:10597000750342F8F039012906D01169814311619C
:105980000020C2F8F00070471169814301431161A2
:10599000F6E74FF08040406980B27047BF4A572316
:1059A00013604FF0750342F8F039012906D0916970
:1059B000814391610020C2F8F000704791698143F2
:1059C00001439161F6E74FF08040C06980B27047B3
:1059D000B24957220A604FF075020A6051F8D42C80
:1059E00042EA000241F8D42C4FF0000008607047F2
:1059F000AA4A572313604FF0750342F8F039012982
:105A000006D0916A814391620020C2F8F00070478D
:105A1000916A814301439162F6E7A04A57231360DC
:105A20004FF0750342F8F039012906D0D16A81435D
:105A3000D1620020C2F8F0007047D16A814301436F
:105A4000D162F6E7954A572313604FF0750342F889
:105A5000F039012906D0116B814311630020C2F88F
:105A6000F0007047116B814301431163F6E78B4AE5
:105A7000572313604FF0750342F8F039012906D01F
:105A8000516B814351630020C2F8F0007047516BA5
:105A9000814301435163F6E7804957220A604FF082
:105AA00075020A6051F8AC2C60F3124241F8AC2C3C
:105AB0004FF0000008607047784957220A604FF0A5
:105AC00075020A6051F8AC2C60F30C3241F8AC2C32
:105AD0004FF0000008607047704957220A604FF08D
